{
  "contractName": "Gaming",
  "abi": [
    {
      "inputs": [],
      "payable": true,
      "stateMutability": "payable",
      "type": "constructor"
    },
    {
      "anonymous": false,
      "inputs": [
        {
          "indexed": false,
          "internalType": "address",
          "name": "funder",
          "type": "address"
        },
        {
          "indexed": false,
          "internalType": "uint256",
          "name": "amount",
          "type": "uint256"
        }
      ],
      "name": "GameFunded",
      "type": "event"
    },
    {
      "anonymous": false,
      "inputs": [
        {
          "indexed": false,
          "internalType": "address",
          "name": "player",
          "type": "address"
        },
        {
          "indexed": false,
          "internalType": "uint256",
          "name": "amount",
          "type": "uint256"
        },
        {
          "indexed": false,
          "internalType": "uint256",
          "name": "mysteryNumber",
          "type": "uint256"
        },
        {
          "indexed": false,
          "internalType": "uint256",
          "name": "displayedNumber",
          "type": "uint256"
        }
      ],
      "name": "PlayerLost",
      "type": "event"
    },
    {
      "anonymous": false,
      "inputs": [
        {
          "indexed": false,
          "internalType": "address",
          "name": "player",
          "type": "address"
        },
        {
          "indexed": false,
          "internalType": "uint256",
          "name": "amount",
          "type": "uint256"
        },
        {
          "indexed": false,
          "internalType": "uint256",
          "name": "mysteryNumber",
          "type": "uint256"
        },
        {
          "indexed": false,
          "internalType": "uint256",
          "name": "displayedNumber",
          "type": "uint256"
        }
      ],
      "name": "PlayerWon",
      "type": "event"
    },
    {
      "anonymous": false,
      "inputs": [
        {
          "indexed": false,
          "internalType": "uint256",
          "name": "wager",
          "type": "uint256"
        },
        {
          "indexed": false,
          "internalType": "uint256",
          "name": "playerNumber",
          "type": "uint256"
        },
        {
          "indexed": false,
          "internalType": "uint256",
          "name": "mysteryNumber",
          "type": "uint256"
        },
        {
          "indexed": false,
          "internalType": "bool",
          "name": "guess",
          "type": "bool"
        },
        {
          "indexed": false,
          "internalType": "string",
          "name": "result",
          "type": "string"
        }
      ],
      "name": "RoundComplete",
      "type": "event"
    },
    {
      "payable": true,
      "stateMutability": "payable",
      "type": "fallback"
    },
    {
      "constant": true,
      "inputs": [
        {
          "internalType": "address",
          "name": "",
          "type": "address"
        }
      ],
      "name": "players",
      "outputs": [
        {
          "internalType": "uint256",
          "name": "wins",
          "type": "uint256"
        },
        {
          "internalType": "uint256",
          "name": "losses",
          "type": "uint256"
        }
      ],
      "payable": false,
      "stateMutability": "view",
      "type": "function"
    },
    {
      "constant": true,
      "inputs": [
        {
          "internalType": "uint256",
          "name": "number",
          "type": "uint256"
        },
        {
          "internalType": "uint256",
          "name": "display",
          "type": "uint256"
        },
        {
          "internalType": "bool",
          "name": "guess",
          "type": "bool"
        }
      ],
      "name": "determineWinner",
      "outputs": [
        {
          "internalType": "bool",
          "name": "",
          "type": "bool"
        }
      ],
      "payable": false,
      "stateMutability": "pure",
      "type": "function"
    },
    {
      "constant": false,
      "inputs": [
        {
          "internalType": "uint256",
          "name": "display",
          "type": "uint256"
        },
        {
          "internalType": "bool",
          "name": "guess",
          "type": "bool"
        }
      ],
      "name": "winOrLose",
      "outputs": [
        {
          "internalType": "bool",
          "name": "",
          "type": "bool"
        },
        {
          "internalType": "uint256",
          "name": "",
          "type": "uint256"
        }
      ],
      "payable": true,
      "stateMutability": "payable",
      "type": "function"
    },
    {
      "constant": false,
      "inputs": [],
      "name": "withdrawFunds",
      "outputs": [],
      "payable": false,
      "stateMutability": "nonpayable",
      "type": "function"
    },
    {
      "constant": false,
      "inputs": [],
      "name": "fundGame",
      "outputs": [],
      "payable": true,
      "stateMutability": "payable",
      "type": "function"
    }
  ],
  "bytecode": "0x60806040526000805460ff60a01b196001600160a01b0319909116331716600160a01b1790556105d9806100346000396000f3fe60806040526004361061005a5760003560e01c8063e169bf6c11610043578063e169bf6c146100bd578063e2eb41ff146100c5578063fc541ef31461011e5761005a565b8063171273a51461005c57806324600fc3146100a8575b005b34801561006857600080fd5b506100946004803603606081101561007f57600080fd5b5080359060208101359060400135151561015e565b604080519115158252519081900360200190f35b3480156100b457600080fd5b5061005a6101b8565b61005a61023d565b3480156100d157600080fd5b50610105600480360360208110156100e857600080fd5b503573ffffffffffffffffffffffffffffffffffffffff166102cf565b6040805192835260208301919091528051918290030190f35b6101436004803603604081101561013457600080fd5b508035906020013515156102e8565b60408051921515835260208301919091528051918290030190f35b600060018215151415610190578284111561017b575060016101b1565b8284101561018b575060006101b1565b6101b1565b816101b157828411156101a5575060006101b1565b828410156101b1575060015b9392505050565b60005473ffffffffffffffffffffffffffffffffffffffff16331461020e5760405162461bcd60e51b81526004018080602001828103825260218152602001806105846021913960400191505060405180910390fd5b60405133904780156108fc02916000818181858888f1935050505015801561023a573d6000803e3d6000fd5b50565b60005473ffffffffffffffffffffffffffffffffffffffff1633146102935760405162461bcd60e51b81526004018080602001828103825260218152602001806105846021913960400191505060405180910390fd5b6040805133815234602082015281517f5c963fd7fde519af29d56159e6e3e18db4e5d3e4716c39c87958cf9e4862ed58929181900390910190a1565b6001602081905260009182526040909120805491015482565b60008054819074010000000000000000000000000000000000000000900460ff16151560011461035f576040805162461bcd60e51b815260206004820152601660248201527f5468652067616d65206973206e6f74206f6e6c696e6500000000000000000000604482015290519081900360640190fd5b343331116103b4576040805162461bcd60e51b815260206004820152601260248201527f496e73756666696369656e742066756e64730000000000000000000000000000604482015290519081900360640190fd5b60006103be610556565b905060006103cd82878761015e565b33600090815260016020819052604090912091925082151514156104ae578054600101815560405133906002340280156108fc02916000818181858888f19350505050158015610421573d6000803e3d6000fd5b506040805134815260208101899052808201859052871515606082015260a0608082018190526003908201527f776f6e000000000000000000000000000000000000000000000000000000000060c082015290517f05bb7924248cee9db500cb69e17c14e314413ba322759d375d60e1cbbff780909181900360e00190a16001839450945050505061054f565b8161054b576001818101805490910190556040805134815260208101899052808201859052871515606082015260a0608082018190526004908201527f6c6f73740000000000000000000000000000000000000000000000000000000060c082015290517f05bb7924248cee9db500cb69e17c14e314413ba322759d375d60e1cbbff780909181900360e00190a16000839450945050505061054f565b5050505b9250929050565b6001600a437fffffffffffffffffffffffffffffffffffffffffffffffffffffffffffffffff014006019056fe4f6e6c79206f776e65722063616e2063616c6c20746869732066756e6374696f6ea265627a7a72315820281b4aea15c5ddc3c00a10ae7570c11faa68ca17d4c91ff1915e17033c24cf7764736f6c63430005100032",
  "source": "pragma solidity 0.5.*;\r\n\r\ncontract Gaming {\r\n    /* Our Online gaming contract */\r\n    address owner;\r\n    bool online;\r\n\r\n\r\n    struct Player {\r\n        uint wins;\r\n        uint losses;\r\n    }\r\n\r\n    mapping (address => Player) public players;\r\n    \r\n    \r\n    constructor() public payable {\r\n        owner = msg.sender;\r\n        online = true;\r\n    }\r\n\r\n    modifier isOwner() {\r\n        require(msg.sender == owner, \"Only owner can call this function\");\r\n        _;\r\n    }\r\n\r\n    event PlayerWon(address player, uint amount, uint mysteryNumber, uint displayedNumber);\r\n    event PlayerLost(address player, uint amount, uint mysteryNumber, uint displayedNumber);\r\n\r\n    event GameFunded(address funder, uint amount);\r\n\r\n    function mysteryNumber() private view returns (uint) {\r\n        uint randomNumber = uint(blockhash(block.number-1))%10 + 1;\r\n        return randomNumber;\r\n    }\r\n\r\n    function determineWinner(uint number, uint display, bool guess) public pure returns (bool) {\r\n        if (guess == true) {\r\n            if (number > display) {\r\n                return true;\r\n            }\r\n            if (number < display) {\r\n                return false;\r\n            }\r\n        } else if (guess == false) {\r\n            if (number > display) {\r\n                return false;\r\n            }\r\n            if (number < display) {\r\n                return true;\r\n            }\r\n        }\r\n    }\r\n\r\n    event RoundComplete(uint wager, uint playerNumber, uint mysteryNumber, bool guess, string result);\r\n    function winOrLose(uint display, bool guess) external payable returns (bool, uint) {\r\n        /* Use true for a higher guess, false for a lower guess */\r\n        require(online == true, \"The game is not online\");\r\n        require(msg.sender.balance > msg.value, \"Insufficient funds\");\r\n        uint mysteryNumber_ = mysteryNumber();\r\n        bool isWinner = determineWinner(mysteryNumber_, display, guess);\r\n        Player storage player = players[msg.sender];\r\n        if (isWinner == true) {\r\n            /* Player won */\r\n            player.wins += 1;\r\n            msg.sender.transfer(msg.value * 2);\r\n            emit RoundComplete(msg.value, display, mysteryNumber_, guess, \"won\");\r\n            return (true, mysteryNumber_);\r\n        } else if (isWinner == false) {\r\n            /* Player lost */\r\n            player.losses += 1;\r\n            emit RoundComplete(msg.value, display, mysteryNumber_, guess, \"lost\");\r\n            return (false, mysteryNumber_);\r\n        }\r\n    }\r\n\r\n    function withdrawFunds() public isOwner {\r\n        msg.sender.transfer(address(this).balance);\r\n    }\r\n\r\n    function fundGame() public isOwner payable {\r\n        emit GameFunded(msg.sender, msg.value);\r\n    }\r\n\r\n    function () external payable {\r\n    }\r\n\r\n}\r\n",
  "sourcePath": "C:/Users/Rohit/desktop/latest/contracts/Gaming.sol",
  "compiler": {
    "name": "solc",
    "version": "0.5.16+commit.9c3226ce.Emscripten.clang"
  },
  "schemaVersion": "3.2.5",
  "updatedAt": "2020-09-14T06:04:25.728Z",
  "networkType": "ethereum",
  "devdoc": {
    "methods": {}
  },
  "userdoc": {
    "methods": {}
  }
}